{
  "_format": "hh-sol-artifact-1",
  "contractName": "AdaToken",
  "sourceName": "contracts/AdaToken.sol",
  "abi": [
    {
      "inputs": [
        {
          "internalType": "address",
          "name": "_galleryAddress",
          "type": "address"
        },
        {
          "internalType": "uint256",
          "name": "delay",
          "type": "uint256"
        }
      ],
      "stateMutability": "nonpayable",
      "type": "constructor"
    },
    {
      "anonymous": false,
      "inputs": [
        {
          "indexed": true,
          "internalType": "address",
          "name": "owner",
          "type": "address"
        },
        {
          "indexed": true,
          "internalType": "address",
          "name": "approved",
          "type": "address"
        },
        {
          "indexed": true,
          "internalType": "uint256",
          "name": "tokenId",
          "type": "uint256"
        }
      ],
      "name": "Approval",
      "type": "event"
    },
    {
      "anonymous": false,
      "inputs": [
        {
          "indexed": true,
          "internalType": "address",
          "name": "owner",
          "type": "address"
        },
        {
          "indexed": true,
          "internalType": "address",
          "name": "operator",
          "type": "address"
        },
        {
          "indexed": false,
          "internalType": "bool",
          "name": "approved",
          "type": "bool"
        }
      ],
      "name": "ApprovalForAll",
      "type": "event"
    },
    {
      "anonymous": false,
      "inputs": [
        {
          "indexed": true,
          "internalType": "address",
          "name": "from",
          "type": "address"
        },
        {
          "indexed": true,
          "internalType": "address",
          "name": "to",
          "type": "address"
        },
        {
          "indexed": true,
          "internalType": "uint256",
          "name": "tokenId",
          "type": "uint256"
        }
      ],
      "name": "Transfer",
      "type": "event"
    },
    {
      "inputs": [],
      "name": "UNIQUE_TOKEN_ID_1",
      "outputs": [
        {
          "internalType": "uint256",
          "name": "",
          "type": "uint256"
        }
      ],
      "stateMutability": "view",
      "type": "function"
    },
    {
      "inputs": [],
      "name": "UNIQUE_TOKEN_ID_2",
      "outputs": [
        {
          "internalType": "uint256",
          "name": "",
          "type": "uint256"
        }
      ],
      "stateMutability": "view",
      "type": "function"
    },
    {
      "inputs": [],
      "name": "UNIQUE_TOKEN_ID_3",
      "outputs": [
        {
          "internalType": "uint256",
          "name": "",
          "type": "uint256"
        }
      ],
      "stateMutability": "view",
      "type": "function"
    },
    {
      "inputs": [],
      "name": "UNIQUE_TOKEN_ID_4",
      "outputs": [
        {
          "internalType": "uint256",
          "name": "",
          "type": "uint256"
        }
      ],
      "stateMutability": "view",
      "type": "function"
    },
    {
      "inputs": [],
      "name": "UNIQUE_TOKEN_ID_5",
      "outputs": [
        {
          "internalType": "uint256",
          "name": "",
          "type": "uint256"
        }
      ],
      "stateMutability": "view",
      "type": "function"
    },
    {
      "inputs": [],
      "name": "UNIQUE_TOKEN_ID_6",
      "outputs": [
        {
          "internalType": "uint256",
          "name": "",
          "type": "uint256"
        }
      ],
      "stateMutability": "view",
      "type": "function"
    },
    {
      "inputs": [],
      "name": "UNIQUE_TOKEN_ID_7",
      "outputs": [
        {
          "internalType": "uint256",
          "name": "",
          "type": "uint256"
        }
      ],
      "stateMutability": "view",
      "type": "function"
    },
    {
      "inputs": [
        {
          "internalType": "address",
          "name": "to",
          "type": "address"
        },
        {
          "internalType": "uint256",
          "name": "tokenId",
          "type": "uint256"
        }
      ],
      "name": "approve",
      "outputs": [],
      "stateMutability": "nonpayable",
      "type": "function"
    },
    {
      "inputs": [
        {
          "internalType": "address",
          "name": "owner",
          "type": "address"
        }
      ],
      "name": "balanceOf",
      "outputs": [
        {
          "internalType": "uint256",
          "name": "",
          "type": "uint256"
        }
      ],
      "stateMutability": "view",
      "type": "function"
    },
    {
      "inputs": [
        {
          "internalType": "address",
          "name": "_newOwner",
          "type": "address"
        },
        {
          "internalType": "uint256",
          "name": "_tokenId",
          "type": "uint256"
        }
      ],
      "name": "buy",
      "outputs": [
        {
          "internalType": "bool",
          "name": "",
          "type": "bool"
        }
      ],
      "stateMutability": "nonpayable",
      "type": "function"
    },
    {
      "inputs": [
        {
          "internalType": "uint256",
          "name": "tokenId",
          "type": "uint256"
        }
      ],
      "name": "getApproved",
      "outputs": [
        {
          "internalType": "address",
          "name": "",
          "type": "address"
        }
      ],
      "stateMutability": "view",
      "type": "function"
    },
    {
      "inputs": [
        {
          "internalType": "address",
          "name": "owner",
          "type": "address"
        },
        {
          "internalType": "address",
          "name": "operator",
          "type": "address"
        }
      ],
      "name": "isApprovedForAll",
      "outputs": [
        {
          "internalType": "bool",
          "name": "",
          "type": "bool"
        }
      ],
      "stateMutability": "view",
      "type": "function"
    },
    {
      "inputs": [
        {
          "internalType": "address",
          "name": "user",
          "type": "address"
        },
        {
          "internalType": "uint256",
          "name": "tokenId",
          "type": "uint256"
        }
      ],
      "name": "joinWaitlist",
      "outputs": [
        {
          "internalType": "bool",
          "name": "",
          "type": "bool"
        }
      ],
      "stateMutability": "nonpayable",
      "type": "function"
    },
    {
      "inputs": [],
      "name": "listTokens",
      "outputs": [
        {
          "internalType": "uint256[7]",
          "name": "",
          "type": "uint256[7]"
        }
      ],
      "stateMutability": "pure",
      "type": "function"
    },
    {
      "inputs": [],
      "name": "name",
      "outputs": [
        {
          "internalType": "string",
          "name": "",
          "type": "string"
        }
      ],
      "stateMutability": "view",
      "type": "function"
    },
    {
      "inputs": [
        {
          "internalType": "uint256",
          "name": "tokenId",
          "type": "uint256"
        }
      ],
      "name": "ownerOf",
      "outputs": [
        {
          "internalType": "address",
          "name": "",
          "type": "address"
        }
      ],
      "stateMutability": "view",
      "type": "function"
    },
    {
      "inputs": [
        {
          "internalType": "uint256",
          "name": "_tokenId",
          "type": "uint256"
        }
      ],
      "name": "releaseTime",
      "outputs": [
        {
          "internalType": "uint256",
          "name": "",
          "type": "uint256"
        }
      ],
      "stateMutability": "view",
      "type": "function"
    },
    {
      "inputs": [
        {
          "internalType": "address",
          "name": "from",
          "type": "address"
        },
        {
          "internalType": "address",
          "name": "to",
          "type": "address"
        },
        {
          "internalType": "uint256",
          "name": "tokenId",
          "type": "uint256"
        }
      ],
      "name": "safeTransferFrom",
      "outputs": [],
      "stateMutability": "nonpayable",
      "type": "function"
    },
    {
      "inputs": [
        {
          "internalType": "address",
          "name": "from",
          "type": "address"
        },
        {
          "internalType": "address",
          "name": "to",
          "type": "address"
        },
        {
          "internalType": "uint256",
          "name": "tokenId",
          "type": "uint256"
        },
        {
          "internalType": "bytes",
          "name": "_data",
          "type": "bytes"
        }
      ],
      "name": "safeTransferFrom",
      "outputs": [],
      "stateMutability": "nonpayable",
      "type": "function"
    },
    {
      "inputs": [
        {
          "internalType": "address",
          "name": "operator",
          "type": "address"
        },
        {
          "internalType": "bool",
          "name": "approved",
          "type": "bool"
        }
      ],
      "name": "setApprovalForAll",
      "outputs": [],
      "stateMutability": "nonpayable",
      "type": "function"
    },
    {
      "inputs": [
        {
          "internalType": "bytes4",
          "name": "interfaceId",
          "type": "bytes4"
        }
      ],
      "name": "supportsInterface",
      "outputs": [
        {
          "internalType": "bool",
          "name": "",
          "type": "bool"
        }
      ],
      "stateMutability": "view",
      "type": "function"
    },
    {
      "inputs": [],
      "name": "symbol",
      "outputs": [
        {
          "internalType": "string",
          "name": "",
          "type": "string"
        }
      ],
      "stateMutability": "view",
      "type": "function"
    },
    {
      "inputs": [
        {
          "internalType": "uint256",
          "name": "tokenId",
          "type": "uint256"
        }
      ],
      "name": "tokenURI",
      "outputs": [
        {
          "internalType": "string",
          "name": "",
          "type": "string"
        }
      ],
      "stateMutability": "view",
      "type": "function"
    },
    {
      "inputs": [
        {
          "internalType": "address",
          "name": "_to",
          "type": "address"
        },
        {
          "internalType": "uint256",
          "name": "_tokenId",
          "type": "uint256"
        }
      ],
      "name": "transfer",
      "outputs": [
        {
          "internalType": "bool",
          "name": "",
          "type": "bool"
        }
      ],
      "stateMutability": "nonpayable",
      "type": "function"
    },
    {
      "inputs": [
        {
          "internalType": "address",
          "name": "from",
          "type": "address"
        },
        {
          "internalType": "address",
          "name": "to",
          "type": "address"
        },
        {
          "internalType": "uint256",
          "name": "tokenId",
          "type": "uint256"
        }
      ],
      "name": "transferFrom",
      "outputs": [],
      "stateMutability": "nonpayable",
      "type": "function"
    }
  ],
  "bytecode": "0x60806040523480156200001157600080fd5b5060405162001c2038038062001c208339810160408190526200003491620003ae565b604080518082018252600981526820b230902a37b5b2b760b91b6020808301918252835180850190945260048452631051105560e21b908401528151919291620000819160009162000308565b5080516200009790600190602084019062000308565b5050600780546001600160a01b0319166001600160a01b038516179055506006819055620000c73360016200011d565b620000d43360026200011d565b620000e13360036200011d565b620000ee3360046200011d565b620000fb3360056200011d565b620001083360066200011d565b620001153360076200011d565b50506200044a565b6001600160a01b0382166200013157600080fd5b6040518060600160405280600654426200014c9190620003e8565b815260208082018490526001600160a01b03858116604093840152600085815260088352839020845181558483015160018201559390920151600290930180546001600160a01b03191693909216929092179055620001b89083908390620001bc811b62000b2417901c565b5050565b6001600160a01b038216620002185760405162461bcd60e51b815260206004820181905260248201527f4552433732313a206d696e7420746f20746865207a65726f206164647265737360448201526064015b60405180910390fd5b6000818152600260205260409020546001600160a01b0316156200027f5760405162461bcd60e51b815260206004820152601c60248201527f4552433732313a20746f6b656e20616c7265616479206d696e7465640000000060448201526064016200020f565b6001600160a01b0382166000908152600360205260408120805460019290620002aa908490620003e8565b909155505060008181526002602052604080822080546001600160a01b0319166001600160a01b03861690811790915590518392907fddf252ad1be2c89b69c2b068fc378daa952ba7f163c4a11628f55a4df523b3ef908290a45050565b82805462000316906200040d565b90600052602060002090601f0160209004810192826200033a576000855562000385565b82601f106200035557805160ff191683800117855562000385565b8280016001018555821562000385579182015b828111156200038557825182559160200191906001019062000368565b506200039392915062000397565b5090565b5b8082111562000393576000815560010162000398565b60008060408385031215620003c1578182fd5b82516001600160a01b0381168114620003d8578283fd5b6020939093015192949293505050565b600082198211156200040857634e487b7160e01b81526011600452602481fd5b500190565b600181811c908216806200042257607f821691505b602082108114156200044457634e487b7160e01b600052602260045260246000fd5b50919050565b6117c6806200045a6000396000f3fe608060405234801561001057600080fd5b50600436106101735760003560e01c80637488ff76116100de578063a22cb46511610097578063c87b56dd11610071578063c87b56dd14610308578063c8acd1441461031b578063cce7ec1314610323578063e985e9c51461033657600080fd5b8063a22cb465146102cf578063a9059cbb146102e2578063b88d4fde146102f557600080fd5b80637488ff76146102875780638148b0221461029c57806383c64da4146102a45780638922a5e5146102ac57806395d89b41146102bf57806396ac779a146102c757600080fd5b806323b872dd1161013057806323b872dd1461022b57806342842e0e1461023e5780634bd5ccae146102515780636352211e1461025957806363749d751461026c57806370a082311461027457600080fd5b806301ffc9a71461017857806306fdde03146101a0578063081812fc146101b5578063095ea7b3146101e057806309c4bb2b146101f55780631da30f0d14610223575b600080fd5b61018b61018636600461148d565b610372565b60405190151581526020015b60405180910390f35b6101a86103c4565b60405161019791906115a6565b6101c86101c33660046114c5565b610456565b6040516001600160a01b039091168152602001610197565b6101f36101ee366004611464565b6104f0565b005b6102156102033660046114c5565b60009081526008602052604090205490565b604051908152602001610197565b610215600181565b6101f361023936600461131a565b610606565b6101f361024c36600461131a565b610637565b610215600281565b6101c86102673660046114c5565b610652565b610215600581565b6102156102823660046112ce565b6106c9565b61028f610750565b6040516101979190611575565b610215600681565b610215600381565b61018b6102ba366004611464565b610796565b6101a861080e565b610215600481565b6101f36102dd36600461142a565b61081d565b61018b6102f0366004611464565b61082c565b6101f3610303366004611355565b6108fa565b6101a86103163660046114c5565b610932565b610215600781565b61018b610331366004611464565b610a1a565b61018b6103443660046112e8565b6001600160a01b03918216600090815260056020908152604080832093909416825291909152205460ff1690565b60006001600160e01b031982166380ac58cd60e01b14806103a357506001600160e01b03198216635b5e139f60e01b145b806103be57506301ffc9a760e01b6001600160e01b03198316145b92915050565b6060600080546103d3906116cb565b80601f01602080910402602001604051908101604052809291908181526020018280546103ff906116cb565b801561044c5780601f106104215761010080835404028352916020019161044c565b820191906000526020600020905b81548152906001019060200180831161042f57829003601f168201915b5050505050905090565b6000818152600260205260408120546001600160a01b03166104d45760405162461bcd60e51b815260206004820152602c60248201527f4552433732313a20617070726f76656420717565727920666f72206e6f6e657860448201526b34b9ba32b73a103a37b5b2b760a11b60648201526084015b60405180910390fd5b506000908152600460205260409020546001600160a01b031690565b60006104fb82610652565b9050806001600160a01b0316836001600160a01b031614156105695760405162461bcd60e51b815260206004820152602160248201527f4552433732313a20617070726f76616c20746f2063757272656e74206f776e656044820152603960f91b60648201526084016104cb565b336001600160a01b038216148061058557506105858133610344565b6105f75760405162461bcd60e51b815260206004820152603860248201527f4552433732313a20617070726f76652063616c6c6572206973206e6f74206f7760448201527f6e6572206e6f7220617070726f76656420666f7220616c6c000000000000000060648201526084016104cb565b6106018383610c66565b505050565b6106103382610cd4565b61062c5760405162461bcd60e51b81526004016104cb9061160b565b610601838383610dcb565b610601838383604051806020016040528060008152506108fa565b6000818152600260205260408120546001600160a01b0316806103be5760405162461bcd60e51b815260206004820152602960248201527f4552433732313a206f776e657220717565727920666f72206e6f6e657869737460448201526832b73a103a37b5b2b760b91b60648201526084016104cb565b60006001600160a01b0382166107345760405162461bcd60e51b815260206004820152602a60248201527f4552433732313a2062616c616e636520717565727920666f7220746865207a65604482015269726f206164647265737360b01b60648201526084016104cb565b506001600160a01b031660009081526003602052604090205490565b610758611294565b506040805160e08101825260018152600260208201526003918101919091526004606082015260056080820152600660a0820152600760c082015290565b60006001600160a01b0383166107ab57600080fd5b600082116107ed5760405162461bcd60e51b815260206004820152600f60248201526e125b9d985b1a59081d1bdad95b9259608a1b60448201526064016104cb565b506001600160a01b0391909116600090815260096020526040902055600190565b6060600180546103d3906116cb565b610828338383610f6b565b5050565b60008181526008602052604081205461084457600080fd5b6000828152600860205260409020544210156108c85760405162461bcd60e51b815260206004820152603f60248201527f556e61626c6520746f207472616e73666572207468697320746f6b656e2c207060448201527f6c65617365207761697420756e74696c2069742069732072656c65617365640060648201526084016104cb565b6007546040805160208101909152600081526108f1916001600160a01b031690859085906108fa565b50600192915050565b6109043383610cd4565b6109205760405162461bcd60e51b81526004016104cb9061160b565b61092c8484848461103a565b50505050565b6000818152600260205260409020546060906001600160a01b03166109b15760405162461bcd60e51b815260206004820152602f60248201527f4552433732314d657461646174613a2055524920717565727920666f72206e6f60448201526e3732bc34b9ba32b73a103a37b5b2b760891b60648201526084016104cb565b60006109c860408051602081019091526000815290565b905060008151116109e85760405180602001604052806000815250610a13565b806109f28461106d565b604051602001610a03929190611509565b6040516020818303038152906040525b9392505050565b60006001600160a01b038316610a2f57600080fd5b600082815260086020526040902054610a8a5760405162461bcd60e51b815260206004820152601760248201527f546f6b656e20696420646f6573206e6f7420657869737400000000000000000060448201526064016104cb565b6001600160a01b038316600090815260096020526040902054610aef5760405162461bcd60e51b815260206004820152601860248201527f506c65617365206a6f696e2074686520776169746c697374000000000000000060448201526064016104cb565b50600081815260086020526040902060020180546001600160a01b0384166001600160a01b0319909116179055600192915050565b6001600160a01b038216610b7a5760405162461bcd60e51b815260206004820181905260248201527f4552433732313a206d696e7420746f20746865207a65726f206164647265737360448201526064016104cb565b6000818152600260205260409020546001600160a01b031615610bdf5760405162461bcd60e51b815260206004820152601c60248201527f4552433732313a20746f6b656e20616c7265616479206d696e7465640000000060448201526064016104cb565b6001600160a01b0382166000908152600360205260408120805460019290610c0890849061165c565b909155505060008181526002602052604080822080546001600160a01b0319166001600160a01b03861690811790915590518392907fddf252ad1be2c89b69c2b068fc378daa952ba7f163c4a11628f55a4df523b3ef908290a45050565b600081815260046020526040902080546001600160a01b0319166001600160a01b0384169081179091558190610c9b82610652565b6001600160a01b03167f8c5be1e5ebec7d5bd14f71427d1e84f3dd0314c0f7b2291e5b200ac8c7c3b92560405160405180910390a45050565b6000818152600260205260408120546001600160a01b0316610d4d5760405162461bcd60e51b815260206004820152602c60248201527f4552433732313a206f70657261746f7220717565727920666f72206e6f6e657860448201526b34b9ba32b73a103a37b5b2b760a11b60648201526084016104cb565b6000610d5883610652565b9050806001600160a01b0316846001600160a01b03161480610d935750836001600160a01b0316610d8884610456565b6001600160a01b0316145b80610dc357506001600160a01b0380821660009081526005602090815260408083209388168352929052205460ff165b949350505050565b826001600160a01b0316610dde82610652565b6001600160a01b031614610e465760405162461bcd60e51b815260206004820152602960248201527f4552433732313a207472616e73666572206f6620746f6b656e2074686174206960448201526839903737ba1037bbb760b91b60648201526084016104cb565b6001600160a01b038216610ea85760405162461bcd60e51b8152602060048201526024808201527f4552433732313a207472616e7366657220746f20746865207a65726f206164646044820152637265737360e01b60648201526084016104cb565b610eb3600082610c66565b6001600160a01b0383166000908152600360205260408120805460019290610edc908490611688565b90915550506001600160a01b0382166000908152600360205260408120805460019290610f0a90849061165c565b909155505060008181526002602052604080822080546001600160a01b0319166001600160a01b0386811691821790925591518493918716917fddf252ad1be2c89b69c2b068fc378daa952ba7f163c4a11628f55a4df523b3ef91a4505050565b816001600160a01b0316836001600160a01b03161415610fcd5760405162461bcd60e51b815260206004820152601960248201527f4552433732313a20617070726f766520746f2063616c6c65720000000000000060448201526064016104cb565b6001600160a01b03838116600081815260056020908152604080832094871680845294825291829020805460ff191686151590811790915591519182527f17307eab39ab6107e8899845ad3d59bd9653f200f220920489ca2b5937696c31910160405180910390a3505050565b611045848484610dcb565b61105184848484611187565b61092c5760405162461bcd60e51b81526004016104cb906115b9565b6060816110915750506040805180820190915260018152600360fc1b602082015290565b8160005b81156110bb57806110a581611706565b91506110b49050600a83611674565b9150611095565b60008167ffffffffffffffff8111156110e457634e487b7160e01b600052604160045260246000fd5b6040519080825280601f01601f19166020018201604052801561110e576020820181803683370190505b5090505b8415610dc357611123600183611688565b9150611130600a86611721565b61113b90603061165c565b60f81b81838151811061115e57634e487b7160e01b600052603260045260246000fd5b60200101906001600160f81b031916908160001a905350611180600a86611674565b9450611112565b60006001600160a01b0384163b1561128957604051630a85bd0160e11b81526001600160a01b0385169063150b7a02906111cb903390899088908890600401611538565b602060405180830381600087803b1580156111e557600080fd5b505af1925050508015611215575060408051601f3d908101601f19168201909252611212918101906114a9565b60015b61126f573d808015611243576040519150601f19603f3d011682016040523d82523d6000602084013e611248565b606091505b5080516112675760405162461bcd60e51b81526004016104cb906115b9565b805181602001fd5b6001600160e01b031916630a85bd0160e11b149050610dc3565b506001949350505050565b6040518060e001604052806007906020820280368337509192915050565b80356001600160a01b03811681146112c957600080fd5b919050565b6000602082840312156112df578081fd5b610a13826112b2565b600080604083850312156112fa578081fd5b611303836112b2565b9150611311602084016112b2565b90509250929050565b60008060006060848603121561132e578081fd5b611337846112b2565b9250611345602085016112b2565b9150604084013590509250925092565b6000806000806080858703121561136a578081fd5b611373856112b2565b9350611381602086016112b2565b925060408501359150606085013567ffffffffffffffff808211156113a4578283fd5b818701915087601f8301126113b7578283fd5b8135818111156113c9576113c9611761565b604051601f8201601f19908116603f011681019083821181831017156113f1576113f1611761565b816040528281528a6020848701011115611409578586fd5b82602086016020830137918201602001949094529598949750929550505050565b6000806040838503121561143c578182fd5b611445836112b2565b915060208301358015158114611459578182fd5b809150509250929050565b60008060408385031215611476578182fd5b61147f836112b2565b946020939093013593505050565b60006020828403121561149e578081fd5b8135610a1381611777565b6000602082840312156114ba578081fd5b8151610a1381611777565b6000602082840312156114d6578081fd5b5035919050565b600081518084526114f581602086016020860161169f565b601f01601f19169290920160200192915050565b6000835161151b81846020880161169f565b83519083019061152f81836020880161169f565b01949350505050565b6001600160a01b038581168252841660208201526040810183905260806060820181905260009061156b908301846114dd565b9695505050505050565b60e08101818360005b600781101561159d57815183526020928301929091019060010161157e565b50505092915050565b602081526000610a1360208301846114dd565b60208082526032908201527f4552433732313a207472616e7366657220746f206e6f6e20455243373231526560408201527131b2b4bb32b91034b6b83632b6b2b73a32b960711b606082015260800190565b60208082526031908201527f4552433732313a207472616e736665722063616c6c6572206973206e6f74206f6040820152701ddb995c881b9bdc88185c1c1c9bdd9959607a1b606082015260800190565b6000821982111561166f5761166f611735565b500190565b6000826116835761168361174b565b500490565b60008282101561169a5761169a611735565b500390565b60005b838110156116ba5781810151838201526020016116a2565b8381111561092c5750506000910152565b600181811c908216806116df57607f821691505b6020821081141561170057634e487b7160e01b600052602260045260246000fd5b50919050565b600060001982141561171a5761171a611735565b5060010190565b6000826117305761173061174b565b500690565b634e487b7160e01b600052601160045260246000fd5b634e487b7160e01b600052601260045260246000fd5b634e487b7160e01b600052604160045260246000fd5b6001600160e01b03198116811461178d57600080fd5b5056fea26469706673582212203f273a43d6af28a0c406a11bf511bcca6f0da40432c0bb2f246abbaa1825b7cf64736f6c63430008040033",
  "linkReferences": {},
  "deployedLinkReferences": {}
}